8=FIX.4.2|9=71|35=A|34=1|49=INIT|52=20200715-13:58:29.050|56=ACCEPT|98=0|108=60|141=Y|10=018|8=FIX.4.2|9=129|35=D|34=2|49=INIT|52=20200715-13:58:34.041|56=ACCEPT|11=12345|21=1|38=1000|40=2|44=1.3|54=1|55=EUR/USD|59=3|60=20200715-13:58:34|10=088|8=FIX.4.2|9=53|35=5|34=3|49=INIT|52=20200715-13:58:34.042|56=ACCEPT|10=188|