8=FIX.4.2|9=71|35=A|34=1|49=INIT|52=20200727-10:23:59.345|56=ACCEPT|98=0|108=60|141=Y|10=020|8=FIX.4.2|9=129|35=D|34=2|49=INIT|52=20200727-10:24:04.331|56=ACCEPT|11=12345|21=1|38=1000|40=2|44=1.3|54=1|55=EUR/USD|59=3|60=20200727-10:24:04|10=070|8=FIX.4.2|9=53|35=5|34=3|49=INIT|52=20200727-10:24:04.338|56=ACCEPT|10=186|