8=FIX.4.2|9=91|35=A|34=1|49=acceptor_target|52=20200727-13:00:55.506|56=acceptor_sender|98=0|108=60|141=Y|10=147|8=FIX.4.2|9=149|35=D|34=2|49=acceptor_target|52=20200727-13:00:58.506|56=acceptor_sender|11=12345|21=1|38=1000|40=2|44=1.3|54=1|55=EUR/USD|59=3|60=20200727-13:00:58|10=220|8=FIX.4.2|9=73|35=5|34=3|49=acceptor_target|52=20200727-13:01:01.512|56=acceptor_sender|10=053|