8=FIX.4.2|9=91|35=A|34=1|49=acceptor_target|52=20200727-17:24:41.740|56=acceptor_sender|98=0|108=60|141=Y|10=152|8=FIX.4.2|9=149|35=D|34=2|49=acceptor_target|52=20200727-17:24:44.740|56=acceptor_sender|11=12345|21=1|38=1000|40=2|44=1.3|54=1|55=EUR/USD|59=3|60=20200727-17:24:44|10=230|8=FIX.4.2|9=118|35=j|34=3|49=acceptor_target|52=20200727-17:24:44.741|56=acceptor_sender|45=2|58=Unsupported Message Type|372=8|380=3|10=160|8=FIX.4.2|9=73|35=5|34=4|49=acceptor_target|52=20200727-17:24:50.750|56=acceptor_sender|10=071|